:100000000C945D000C9485000C9485000C94850084
:100010000C9485000C9485000C9485000C9485004C
:100020000C9485000C9485000C9485000C9485003C
:100030000C9485000C9485000C9485000C9485002C
:100040000C94AE030C9485000C947C030C94560322
:100050000C9485000C9485000C9485000C9485000C
:100060000C9485000C94850000000008000201003B
:100070000003040700000000000000000000000072
:10008000250028002B0000000000240027002A0083
:10009000040404040404040402020202020203032E
:1000A0000303030301020408102040800102040836
:1000B0001020010204081020F80311241FBECFEF06
:1000C000D8E0DEBFCDBF11E0A0E0B1E0EAEFF9E09B
:1000D00002C005900D92AC33B107D9F721E0ACE333
:1000E000B1E001C01D92AA3FB207E1F710E0CDE5F3
:1000F000D0E004C02197FE010E94F504CC35D10761
:10010000C9F70E9442040C94FB040C94000090E098
:10011000FC01EC55FF4F249180579F4FFC018491C7
:10012000882399F090E0880F991FFC01EA57FF4F50
:10013000A591B491FC01E458FF4F859194918FB73C
:10014000F894EC91E22BEC938FBF0895AF92BF929D
:10015000CF92DF92EF92FF920F931F93CF93DF9393
:100160006C017B018B01040F151FEB015E01AE18C2
:10017000BF08C017D10759F06991D601ED91FC91E4
:100180000190F081E02DC6010995892B79F7C50111
:10019000DF91CF911F910F91FF90EF90DF90CF9063
:1001A000BF90AF900895FC01538D448D252F30E012
:1001B000842F90E0821B930B541710F0CF96089574
:1001C00001970895FC01918D828D981761F0A28DA1
:1001D000AE0FBF2FB11D5D968C91928D9F5F9F7367
:1001E000928F90E008958FEF9FEF0895FC01918D1D
:1001F000828D981731F0828DE80FF11D858D90E08A
:1002000008958FEF9FEF0895FC01918D228D892F26
:1002100090E0805C9F4F821B91098F73992708950E
:1002200085E491E00E94040121E0892B09F420E09B
:10023000822F089580E090E0892B29F00E94100120
:1002400081110C9400000895FC01A48DA80FB92F12
:10025000B11DA35ABF4F2C91848D90E001968F73EE
:100260009927848FA689B7892C93A089B1898C910D
:10027000837080648C93938D848D981306C002885C
:10028000F389E02D80818F7D80830895EF92FF9226
:100290000F931F93CF93DF93EC0181E0888F9B8DA9
:1002A0008C8D98131AC0E889F989808185FF15C063
:1002B0009FB7F894EE89FF896083E889F989808186
:1002C0008370806480839FBF81E090E0DF91CF9155
:1002D0001F910F91FF90EF900895F62E0B8D10E077
:1002E0000F5F1F4F0F731127E02E8C8D8E110CC0E6
:1002F0000FB607FCFACFE889F989808185FFF5CF31
:10030000CE010E942401F1CFEB8DEC0FFD2FF11DEA
:10031000E35AFF4FF0829FB7F8940B8FEA89FB896D
:1003200080818062CFCFCF93DF93EC01888D8823CB
:10033000B9F0AA89BB89E889F9898C9185FD03C048
:10034000808186FD0DC00FB607FCF7CF8C9185FF2D
:10035000F2CF808185FFEDCFCE010E942401E9CF4D
:10036000DF91CF91089590E0FC01E859FF4F24916F
:10037000FC01EC55FF4F3491FC01E057FF4FE49135
:10038000EE23C9F0222339F0233001F1A8F4213003
:1003900019F1223029F1F0E0EE0FFF1FE458FF4F72
:1003A000A591B4918FB7F894EC91611126C0309566
:1003B0003E233C938FBF08952730A9F02830C9F021
:1003C000243049F7809180008F7D03C080918000A8
:1003D0008F7780938000DFCF84B58F7784BDDBCFAC
:1003E00084B58F7DFBCF8091B0008F778093B00074
:1003F000D2CF8091B0008F7DF9CF3E2BDACF089518
:1004000090E080E00895FB0101900020E9F731972A
:10041000AF01461B570BDC01ED91FC910280F3818B
:10042000E02D0994CF93DF93EC0160E08E810E9470
:10043000B30161E08E810E94B30160E08E810E9471
:10044000B3018BE891E00197F1F7DF91CF91089527
:10045000CF92DF92EF92FF920F931F93CF93DF9390
:100460006C017C0187E0E80EF11CD0E0C0E0062FB3
:1004700010E0B8010C2E02C0759567950A94E2F75A
:100480006170F70181917F010E94B3012196C43010
:10049000D10579F7C601DF91CF911F910F91FF90A0
:1004A000EF90DF90CF900C941202CF92DF92EF92F8
:1004B000FF920F931F93CF93DF93EC01F62E642FDF
:1004C0008C810E94B3018D818F3F19F060E00E9402
:1004D000B3010F2D10E08F8584FF25C06E0187E0EA
:1004E000C80ED11CF12CE12CB8010E2C02C0759560
:1004F00067950A94E2F76170F60181916F010E949D
:10050000B301FFEFEF1AFF0A88E0E816F10461F784
:10051000CE01DF91CF911F910F91FF90EF90DF906F
:10052000CF900C941202B80184E0759567958A9576
:10053000E1F7CE010E9428026F2DCE01DF91CF910D
:100540001F910F91FF90EF90DF90CF900C942802B5
:1005500040E0682F82EE91E00C945502CF93DF9338
:10056000823029F49091F10198609093F101809389
:10057000F5011092F60180E48093F70180E1809309
:10058000F80180E58093F9018091E6010E948700DF
:100590008091E7018F3F11F00E9487008091E80170
:1005A0000E948700C2EED1E09E01225E3140809120
:1005B000F10184FD0AC084E090E0219628173907F4
:1005C0003CF48E810E948700EFCF88E090E0F5CF69
:1005D0008BE39DE00197F1F760E08091E6010E94D6
:1005E000B30160E08091E8010E94B3018091E701CE
:1005F0008F3F19F060E00E94B3018091F10184FD0A
:1006000039C063E082EE91E00E942802CBE4D6E498
:10061000CE010197F1F763E082EE91E00E9428029B
:100620002197F1F763E082EE91E00E94280283E5D2
:1006300092E00197F1F762E082EE91E00E942802D9
:100640008091F10180620E94A80284E08093F2010F
:100650008CE00E94A80281E00E94A8028BE39FE147
:100660000197F1F782E08093F30186E0DF91CF916B
:100670000C94A80280620E94A8028BE496E4019781
:10068000F1F78091F10180620E94A80283E592E077
:100690000197F1F78091F10180620E94A802D0CF0A
:1006A00041E00E94550281E090E008951F920F9270
:1006B0000FB60F9211242F933F934F935F936F9335
:1006C0007F938F939F93AF93BF93EF93FF9385E4B3
:1006D00091E00E942401FF91EF91BF91AF919F9112
:1006E0008F917F916F915F914F913F912F910F90DB
:1006F0000FBE0F901F9018951F920F920FB60F927A
:1007000011242F938F939F93EF93FF93E0915501C3
:10071000F09156018081E0915B01F0915C0182FDD6
:100720001BC0908180915E018F5F8F7320915F016C
:10073000821741F0E0915E01F0E0EB5BFE4F958F98
:1007400080935E01FF91EF919F918F912F910F9078
:100750000FBE0F901F9018958081F4CF1F920F92BB
:100760000FB60F9211242F933F938F939F93AF93C4
:10077000BF938091410190914201A0914301B091BA
:1007800044013091400123E0230F2D3758F50196A5
:10079000A11DB11D2093400180934101909342011E
:1007A000A0934301B093440180913C0190913D019D
:1007B000A0913E01B0913F010196A11DB11D809312
:1007C0003C0190933D01A0933E01B0933F01BF9146
:1007D000AF919F918F913F912F910F900FBE0F90EE
:1007E0001F90189526E8230F0296A11DB11DD2CFA8
:1007F000E5E4F1E01382128288EE93E0A0E0B0E03D
:1008000084839583A683B78384E091E0918380837A
:1008100085EC90E09587848784EC90E097878687C5
:1008200080EC90E0918B808B81EC90E0938B828BBD
:1008300082EC90E0958B848B86EC90E0978B868B96
:10084000118E128E138E148EE2EEF1E0138212825C
:1008500086E191E0918380838CE084838FEF8583B0
:100860008BE0868385E0878384E0808783E08187CF
:1008700082E082871386148615861686178681E0A5
:100880000C94AE02789484B5826084BD84B5816096
:1008900084BD85B5826085BD85B5816085BD80914B
:1008A0006E00816080936E001092810080918100C3
:1008B00082608093810080918100816080938100BB
:1008C000809180008160809380008091B10084607D
:1008D0008093B1008091B00081608093B0008091DE
:1008E0007A00846080937A0080917A00826080939D
:1008F0007A0080917A00816080937A0080917A00FA
:10090000806880937A001092C10082E00E94AE025B
:10091000E0915501F091560182E08083E091510110
:10092000F09152011082E0915301F09154018FEC4B
:10093000808310925D01E0915901F0915A0186E0A7
:100940008083E0915701F09158018081806180831C
:10095000E0915701F0915801808188608083E09197
:100960005701F0915801808180688083E0915701A0
:10097000F091580180818F7D808381E00E94A802E0
:100980008BE39FE10197F1F7C0E0D0E06EE171E009
:1009900082EE91E00E940302E091F501E23018F549
:1009A000E150F0E0EE51FE4F848980680E94A80279
:1009B0006BE271E082EE91E00E9403026BE271E073
:1009C00085E491E00E94030268E371E085E491E030
:1009D0000E9403022097D1F20E9410018823B1F2F5
:1009E0000E940000D3CFE1E0DCCFEE0FFF1F0590A7
:0A09F000F491E02D0994F894FFCF74
:1009FA00000000004601A600D30093010401E200B2
:100A0A00F600000000005003A6000002FF0148653E
:100A1A006C6C6F20776F726C6421004C43442054D5
:0C0A2A0075746F7269616C000D0A0000A9
:00000001FF
